{
  "contractName": "DAO",
  "abi": [
    {
      "inputs": [
        {
          "internalType": "address",
          "name": "_token",
          "type": "address"
        }
      ],
      "stateMutability": "nonpayable",
      "type": "constructor"
    },
    {
      "inputs": [
        {
          "internalType": "bytes32",
          "name": "",
          "type": "bytes32"
        }
      ],
      "name": "proposals",
      "outputs": [
        {
          "internalType": "address",
          "name": "author",
          "type": "address"
        },
        {
          "internalType": "bytes32",
          "name": "hash",
          "type": "bytes32"
        },
        {
          "internalType": "uint256",
          "name": "createdAt",
          "type": "uint256"
        },
        {
          "internalType": "uint256",
          "name": "votesYes",
          "type": "uint256"
        },
        {
          "internalType": "uint256",
          "name": "votesNo",
          "type": "uint256"
        },
        {
          "internalType": "enum DAO.Status",
          "name": "status",
          "type": "uint8"
        }
      ],
      "stateMutability": "view",
      "type": "function"
    },
    {
      "inputs": [
        {
          "internalType": "address",
          "name": "",
          "type": "address"
        }
      ],
      "name": "shares",
      "outputs": [
        {
          "internalType": "uint256",
          "name": "",
          "type": "uint256"
        }
      ],
      "stateMutability": "view",
      "type": "function"
    },
    {
      "inputs": [],
      "name": "token",
      "outputs": [
        {
          "internalType": "contract IERC20",
          "name": "",
          "type": "address"
        }
      ],
      "stateMutability": "view",
      "type": "function"
    },
    {
      "inputs": [],
      "name": "totalShares",
      "outputs": [
        {
          "internalType": "uint256",
          "name": "",
          "type": "uint256"
        }
      ],
      "stateMutability": "view",
      "type": "function"
    },
    {
      "inputs": [
        {
          "internalType": "address",
          "name": "",
          "type": "address"
        },
        {
          "internalType": "bytes32",
          "name": "",
          "type": "bytes32"
        }
      ],
      "name": "votes",
      "outputs": [
        {
          "internalType": "bool",
          "name": "",
          "type": "bool"
        }
      ],
      "stateMutability": "view",
      "type": "function"
    },
    {
      "inputs": [
        {
          "internalType": "uint256",
          "name": "amount",
          "type": "uint256"
        }
      ],
      "name": "deposit",
      "outputs": [],
      "stateMutability": "nonpayable",
      "type": "function"
    },
    {
      "inputs": [
        {
          "internalType": "uint256",
          "name": "amount",
          "type": "uint256"
        }
      ],
      "name": "withdraw",
      "outputs": [],
      "stateMutability": "nonpayable",
      "type": "function"
    },
    {
      "inputs": [
        {
          "internalType": "bytes32",
          "name": "proposalHash",
          "type": "bytes32"
        }
      ],
      "name": "createProposal",
      "outputs": [],
      "stateMutability": "nonpayable",
      "type": "function"
    },
    {
      "inputs": [
        {
          "internalType": "bytes32",
          "name": "proposalHash",
          "type": "bytes32"
        },
        {
          "internalType": "enum DAO.Side",
          "name": "side",
          "type": "uint8"
        }
      ],
      "name": "vote",
      "outputs": [],
      "stateMutability": "nonpayable",
      "type": "function"
    }
  ],
  "bytecode": "0x60806040523480156200001157600080fd5b506040516200153638038062001536833981810160405281019062000037919062000096565b80600460006101000a81548173ffffffffffffffffffffffffffffffffffffffff021916908373ffffffffffffffffffffffffffffffffffffffff1602179055505062000110565b6000815190506200009081620000f6565b92915050565b600060208284031215620000a957600080fd5b6000620000b9848285016200007f565b91505092915050565b6000620000cf82620000d6565b9050919050565b600073ffffffffffffffffffffffffffffffffffffffff82169050919050565b6200010181620000c2565b81146200010d57600080fd5b50565b61141680620001206000396000f3fe608060405234801561001057600080fd5b50600436106100935760003560e01c80633a98ef39116100665780633a98ef3914610135578063b6b55f2514610153578063c9a28cb91461016f578063ce7c2ac21461018b578063fc0c546a146101bb57610093565b80631db5ade8146100985780632542bf06146100c85780632e1a7d4d146100e457806332ed5b1214610100575b600080fd5b6100b260048036038101906100ad9190610c4d565b6101d9565b6040516100bf9190611001565b60405180910390f35b6100e260048036038101906100dd9190610cb2565b610208565b005b6100fe60048036038101906100f99190610d17565b610448565b005b61011a60048036038101906101159190610cb2565b6105ec565b60405161012c96959493929190610f77565b60405180910390f35b61013d610655565b60405161014a91906110f7565b60405180910390f35b61016d60048036038101906101689190610d17565b61065b565b005b61018960048036038101906101849190610cdb565b61077f565b005b6101a560048036038101906101a09190610c24565b610b7d565b6040516101b291906110f7565b60405180910390f35b6101c3610b95565b6040516101d0919061101c565b60405180910390f35b60016020528160005260406000206020528060005260406000206000915091509054906101000a900460ff1681565b683635c9adc5dea00000600260003373ffffffffffffffffffffffffffffffffffffffff1673ffffffffffffffffffffffffffffffffffffffff168152602001908152602001600020541015610293576040517f08c379a000000000000000000000000000000000000000000000000000000000815260040161028a90611057565b60405180910390fd5b6000801b60008083815260200190815260200160002060010154146102ed576040517f08c379a00000000000000000000000000000000000000000000000000000000081526004016102e490611037565b60405180910390fd5b6040518060c001604052803373ffffffffffffffffffffffffffffffffffffffff168152602001828152602001428152602001600081526020016000815260200160006002811115610368577f4e487b7100000000000000000000000000000000000000000000000000000000600052602160045260246000fd5b81525060008083815260200190815260200160002060008201518160000160006101000a81548173ffffffffffffffffffffffffffffffffffffffff021916908373ffffffffffffffffffffffffffffffffffffffff1602179055506020820151816001015560408201518160020155606082015181600301556080820151816004015560a08201518160050160006101000a81548160ff0219169083600281111561043d577f4e487b7100000000000000000000000000000000000000000000000000000000600052602160045260246000fd5b021790555090505050565b80600260003373ffffffffffffffffffffffffffffffffffffffff1673ffffffffffffffffffffffffffffffffffffffff1681526020019081526020016000205410156104ca576040517f08c379a00000000000000000000000000000000000000000000000000000000081526004016104c190611077565b60405180910390fd5b80600260003373ffffffffffffffffffffffffffffffffffffffff1673ffffffffffffffffffffffffffffffffffffffff16815260200190815260200160002060008282546105199190611204565b9250508190555080600360008282546105329190611204565b92505081905550600460009054906101000a900473ffffffffffffffffffffffffffffffffffffffff1673ffffffffffffffffffffffffffffffffffffffff1663a9059cbb33836040518363ffffffff1660e01b8152600401610596929190610fd8565b602060405180830381600087803b1580156105b057600080fd5b505af11580156105c4573d6000803e3d6000fd5b505050506040513d601f19601f820116820180604052508101906105e89190610c89565b5050565b60006020528060005260406000206000915090508060000160009054906101000a900473ffffffffffffffffffffffffffffffffffffffff16908060010154908060020154908060030154908060040154908060050160009054906101000a900460ff16905086565b60035481565b80600260003373ffffffffffffffffffffffffffffffffffffffff1673ffffffffffffffffffffffffffffffffffffffff16815260200190815260200160002060008282546106aa9190611123565b9250508190555080600360008282546106c39190611123565b92505081905550600460009054906101000a900473ffffffffffffffffffffffffffffffffffffffff1673ffffffffffffffffffffffffffffffffffffffff166323b872dd3330846040518463ffffffff1660e01b815260040161072993929190610f40565b602060405180830381600087803b15801561074357600080fd5b505af1158015610757573d6000803e3d6000fd5b505050506040513d601f19601f8201168201806040525081019061077b9190610c89565b5050565b6000806000848152602001908152602001600020905060001515600160003373ffffffffffffffffffffffffffffffffffffffff1673ffffffffffffffffffffffffffffffffffffffff168152602001908152602001600020600085815260200190815260200160002060009054906101000a900460ff16151514610839576040517f08c379a000000000000000000000000000000000000000000000000000000000815260040161083090611097565b60405180910390fd5b6000801b600080858152602001908152602001600020600101541415610894576040517f08c379a000000000000000000000000000000000000000000000000000000000815260040161088b906110b7565b60405180910390fd5b62093a8081600201546108a79190611123565b4211156108e9576040517f08c379a00000000000000000000000000000000000000000000000000000000081526004016108e0906110d7565b60405180910390fd5b60018060003373ffffffffffffffffffffffffffffffffffffffff1673ffffffffffffffffffffffffffffffffffffffff168152602001908152602001600020600085815260200190815260200160002060006101000a81548160ff0219169083151502179055506000600181111561098b577f4e487b7100000000000000000000000000000000000000000000000000000000600052602160045260246000fd5b8260018111156109c4577f4e487b7100000000000000000000000000000000000000000000000000000000600052602160045260246000fd5b1415610aa357600260003373ffffffffffffffffffffffffffffffffffffffff1673ffffffffffffffffffffffffffffffffffffffff16815260200190815260200160002054816003016000828254610a1d9190611123565b92505081905550603260035460648360030154610a3a91906111aa565b610a449190611179565b1115610a9e5760018160050160006101000a81548160ff02191690836002811115610a98577f4e487b7100000000000000000000000000000000000000000000000000000000600052602160045260246000fd5b02179055505b610b78565b600260003373ffffffffffffffffffffffffffffffffffffffff1673ffffffffffffffffffffffffffffffffffffffff16815260200190815260200160002054816004016000828254610af69190611123565b92505081905550603260035460648360040154610b1391906111aa565b610b1d9190611179565b1115610b775760028160050160006101000a81548160ff02191690836002811115610b71577f4e487b7100000000000000000000000000000000000000000000000000000000600052602160045260246000fd5b02179055505b5b505050565b60026020528060005260406000206000915090505481565b600460009054906101000a900473ffffffffffffffffffffffffffffffffffffffff1681565b600081359050610bca81611374565b92915050565b600081519050610bdf8161138b565b92915050565b600081359050610bf4816113a2565b92915050565b600081359050610c09816113b9565b92915050565b600081359050610c1e816113c9565b92915050565b600060208284031215610c3657600080fd5b6000610c4484828501610bbb565b91505092915050565b60008060408385031215610c6057600080fd5b6000610c6e85828601610bbb565b9250506020610c7f85828601610be5565b9150509250929050565b600060208284031215610c9b57600080fd5b6000610ca984828501610bd0565b91505092915050565b600060208284031215610cc457600080fd5b6000610cd284828501610be5565b91505092915050565b60008060408385031215610cee57600080fd5b6000610cfc85828601610be5565b9250506020610d0d85828601610bfa565b9150509250929050565b600060208284031215610d2957600080fd5b6000610d3784828501610c0f565b91505092915050565b610d4981611238565b82525050565b610d588161124a565b82525050565b610d6781611256565b82525050565b610d768161129d565b82525050565b610d85816112c1565b82525050565b6000610d98601b83611112565b91507f746869732070726f706f73616c20616c726561647920657869737400000000006000830152602082019050919050565b6000610dd8602483611112565b91507f6e6f7420656e6f7567682073686172657320746f206372656174652070726f7060008301527f6f73616c000000000000000000000000000000000000000000000000000000006020830152604082019050919050565b6000610e3e601183611112565b91507f6e6f7420656e6f756768207368617265730000000000000000000000000000006000830152602082019050919050565b6000610e7e600d83611112565b91507f616c726561647920766f746564000000000000000000000000000000000000006000830152602082019050919050565b6000610ebe601683611112565b91507f70726f706f73616c20616c7265616479206578697374000000000000000000006000830152602082019050919050565b6000610efe601283611112565b91507f766f74696e6720706572696f64206f76657200000000000000000000000000006000830152602082019050919050565b610f3a81611293565b82525050565b6000606082019050610f556000830186610d40565b610f626020830185610d40565b610f6f6040830184610f31565b949350505050565b600060c082019050610f8c6000830189610d40565b610f996020830188610d5e565b610fa66040830187610f31565b610fb36060830186610f31565b610fc06080830185610f31565b610fcd60a0830184610d7c565b979650505050505050565b6000604082019050610fed6000830185610d40565b610ffa6020830184610f31565b9392505050565b60006020820190506110166000830184610d4f565b92915050565b60006020820190506110316000830184610d6d565b92915050565b6000602082019050818103600083015261105081610d8b565b9050919050565b6000602082019050818103600083015261107081610dcb565b9050919050565b6000602082019050818103600083015261109081610e31565b9050919050565b600060208201905081810360008301526110b081610e71565b9050919050565b600060208201905081810360008301526110d081610eb1565b9050919050565b600060208201905081810360008301526110f081610ef1565b9050919050565b600060208201905061110c6000830184610f31565b92915050565b600082825260208201905092915050565b600061112e82611293565b915061113983611293565b9250827fffffffffffffffffffffffffffffffffffffffffffffffffffffffffffffffff0382111561116e5761116d6112d3565b5b828201905092915050565b600061118482611293565b915061118f83611293565b92508261119f5761119e611302565b5b828204905092915050565b60006111b582611293565b91506111c083611293565b9250817fffffffffffffffffffffffffffffffffffffffffffffffffffffffffffffffff04831182151516156111f9576111f86112d3565b5b828202905092915050565b600061120f82611293565b915061121a83611293565b92508282101561122d5761122c6112d3565b5b828203905092915050565b600061124382611273565b9050919050565b60008115159050919050565b6000819050919050565b600081905061126e82611360565b919050565b600073ffffffffffffffffffffffffffffffffffffffff82169050919050565b6000819050919050565b60006112a8826112af565b9050919050565b60006112ba82611273565b9050919050565b60006112cc82611260565b9050919050565b7f4e487b7100000000000000000000000000000000000000000000000000000000600052601160045260246000fd5b7f4e487b7100000000000000000000000000000000000000000000000000000000600052601260045260246000fd5b7f4e487b7100000000000000000000000000000000000000000000000000000000600052602160045260246000fd5b6003811061137157611370611331565b5b50565b61137d81611238565b811461138857600080fd5b50565b6113948161124a565b811461139f57600080fd5b50565b6113ab81611256565b81146113b657600080fd5b50565b600281106113c657600080fd5b50565b6113d281611293565b81146113dd57600080fd5b5056fea2646970667358221220965f840520dc6c3928037783e87f862b7c41f5577e5d73da10cacfd2c359aa1f64736f6c63430008000033",
  "immutableReferences": {},
  "source": "// SPDX-License-Identifier: MIT\n\npragma solidity ^0.8.0;\n\nimport \"@openzeppelin/contracts/token/ERC20/IERC20.sol\";\n\ncontract DAO {\n    enum Side {\n        Yes,\n        No\n    }\n    enum Status {\n        Undecided,\n        Approved,\n        Rejected\n    }\n    struct Proposal {\n        address author;\n        bytes32 hash;\n        uint256 createdAt;\n        uint256 votesYes;\n        uint256 votesNo;\n        Status status;\n    }\n\n    mapping(bytes32 => Proposal) public proposals;\n    //check if user already voted so there is not double votes\n    mapping(address => mapping(bytes32 => bool)) public votes;\n    //1 share per governance token\n    mapping(address => uint256) public shares;\n    uint256 public totalShares;\n    IERC20 public token;\n    //min amount of governance tokens someone must have to create a proposal\n    uint256 constant CREATE_PROPOSAL_MIN_SHARE = 1000 * 10**18;\n    uint256 constant VOTING_PERIOD = 7 days;\n\n    constructor(address _token) {\n        token = IERC20(_token);\n    }\n\n    //before voting we need to deposit\n    function deposit(uint256 amount) external {\n        shares[msg.sender] += amount;\n        totalShares += amount;\n        token.transferFrom(msg.sender, address(this), amount);\n    }\n\n    function withdraw(uint256 amount) external {\n        require(shares[msg.sender] >= amount, \"not enough shares\");\n        shares[msg.sender] -= amount;\n        totalShares -= amount;\n        token.transfer(msg.sender, amount);\n    }\n\n    function createProposal(bytes32 proposalHash) external {\n        require(\n            shares[msg.sender] >= CREATE_PROPOSAL_MIN_SHARE,\n            \"not enough shares to create proposal\"\n        );\n        require(\n            proposals[proposalHash].hash == bytes32(0),\n            \"this proposal already exist\"\n        );\n        proposals[proposalHash] = Proposal(\n            msg.sender,\n            proposalHash,\n            block.timestamp,\n            0,\n            0,\n            Status.Undecided\n        );\n    }\n\n    function vote(bytes32 proposalHash, Side side) external {\n        Proposal storage proposal = proposals[proposalHash];\n        require(votes[msg.sender][proposalHash] == false, \"already voted\");\n        require(\n            proposals[proposalHash].hash != bytes32(0),\n            \"proposal already exist\"\n        );\n        require(\n            block.timestamp <= proposal.createdAt + VOTING_PERIOD,\n            \"voting period over\"\n        );\n        votes[msg.sender][proposalHash] = true;\n        if (side == Side.Yes) {\n            proposal.votesYes += shares[msg.sender];\n            //votes are multiplied because we want to have more than 50% of the votes, which\n            // would be 0.5 but solidity cant handle floats, so we go around it\n            if ((proposal.votesYes * 100) / totalShares > 50) {\n                proposal.status = Status.Approved;\n            }\n        } else {\n            proposal.votesNo += shares[msg.sender];\n            if ((proposal.votesNo * 100) / totalShares > 50) {\n                proposal.status = Status.Rejected;\n            }\n        }\n    }\n}\n",
  "sourcePath": "/Volumes/APPLE HDD/reactprojects/dao-2/contracts/DAO.sol",
  "compiler": {
    "name": "solc",
    "version": "0.8.0+commit.c7dfd78e.Emscripten.clang"
  },
  "schemaVersion": "3.4.3",
  "updatedAt": "2021-11-06T03:23:57.933Z",
  "devdoc": {
    "kind": "dev",
    "methods": {},
    "version": 1
  },
  "userdoc": {
    "kind": "user",
    "methods": {},
    "version": 1
  }
}